{
  "contractName": "Flappy",
  "abi": [
    {
      "constant": true,
      "inputs": [
        {
          "name": "",
          "type": "uint256"
        }
      ],
      "name": "topTen",
      "outputs": [
        {
          "name": "",
          "type": "uint64"
        }
      ],
      "payable": false,
      "stateMutability": "view",
      "type": "function"
    },
    {
      "inputs": [
        {
          "name": "_name",
          "type": "bytes32"
        }
      ],
      "payable": false,
      "stateMutability": "nonpayable",
      "type": "constructor"
    },
    {
      "payable": true,
      "stateMutability": "payable",
      "type": "fallback"
    },
    {
      "constant": false,
      "inputs": [
        {
          "name": "playerAddress",
          "type": "address"
        },
        {
          "name": "playerScore",
          "type": "uint64"
        }
      ],
      "name": "checkScore",
      "outputs": [
        {
          "name": "",
          "type": "uint256"
        }
      ],
      "payable": false,
      "stateMutability": "nonpayable",
      "type": "function"
    },
    {
      "constant": false,
      "inputs": [
        {
          "name": "index",
          "type": "uint256"
        }
      ],
      "name": "getTopTen",
      "outputs": [
        {
          "name": "",
          "type": "uint64"
        }
      ],
      "payable": false,
      "stateMutability": "nonpayable",
      "type": "function"
    },
    {
      "constant": false,
      "inputs": [],
      "name": "checkIfPaid",
      "outputs": [],
      "payable": false,
      "stateMutability": "nonpayable",
      "type": "function"
    },
    {
      "constant": false,
      "inputs": [
        {
          "name": "playerAddress",
          "type": "address"
        },
        {
          "name": "playerScore",
          "type": "uint64"
        }
      ],
      "name": "checkHighScore",
      "outputs": [],
      "payable": true,
      "stateMutability": "payable",
      "type": "function"
    },
    {
      "constant": false,
      "inputs": [
        {
          "name": "playerAddress",
          "type": "address"
        },
        {
          "name": "playerScore",
          "type": "uint64"
        }
      ],
      "name": "checkInTopTen",
      "outputs": [],
      "payable": false,
      "stateMutability": "nonpayable",
      "type": "function"
    },
    {
      "constant": false,
      "inputs": [],
      "name": "payDividendsToTopTen",
      "outputs": [],
      "payable": false,
      "stateMutability": "nonpayable",
      "type": "function"
    },
    {
      "constant": false,
      "inputs": [
        {
          "name": "arr_",
          "type": "uint64[]"
        }
      ],
      "name": "sort_array",
      "outputs": [
        {
          "name": "",
          "type": "uint64[]"
        }
      ],
      "payable": false,
      "stateMutability": "nonpayable",
      "type": "function"
    }
  ],
  "bytecode": "0x60806040526000805534801561001457600080fd5b50604051602080610c438339810180604052810190808051906020019092919050505033600460006101000a81548173ffffffffffffffffffffffffffffffffffffffff021916908373ffffffffffffffffffffffffffffffffffffffff160217905550806005816000191690555050610bb0806100936000396000f30060806040526004361061008e576000357c0100000000000000000000000000000000000000000000000000000000900463ffffffff1680633e35ffd214610090578063497fdd0f146100fb5780637209201f14610145578063756f0f4a1461019c5780637d5523f8146101f15780638863544114610208578063e70e52ae1461025d578063ead10f3114610318575b005b34801561009c57600080fd5b506100e5600480360381019080803573ffffffffffffffffffffffffffffffffffffffff169060200190929190803567ffffffffffffffff16906020019092919050505061032f565b6040518082815260200191505060405180910390f35b610143600480360381019080803573ffffffffffffffffffffffffffffffffffffffff169060200190929190803567ffffffffffffffff169060200190929190505050610358565b005b34801561015157600080fd5b5061019a600480360381019080803573ffffffffffffffffffffffffffffffffffffffff169060200190929190803567ffffffffffffffff16906020019092919050505061045d565b005b3480156101a857600080fd5b506101c76004803603810190808035906020019092919050505061082b565b604051808267ffffffffffffffff1667ffffffffffffffff16815260200191505060405180910390f35b3480156101fd57600080fd5b5061020661086d565b005b34801561021457600080fd5b506102336004803603810190808035906020019092919050505061094b565b604051808267ffffffffffffffff1667ffffffffffffffff16815260200191505060405180910390f35b34801561026957600080fd5b506102c160048036038101908080359060200190820180359060200190808060200260200160405190810160405280939291908181526020018383602002808284378201915050505050509192919290505050610988565b6040518080602001828103825283818151815260200191508051906020019060200280838360005b838110156103045780820151818401526020810190506102e9565b505050509050019250505060405180910390f35b34801561032457600080fd5b5061032d610b52565b005b600061033b838361045d565b6103458383610358565b8167ffffffffffffffff16905092915050565b600080548267ffffffffffffffff161115610458578167ffffffffffffffff1660008190555082600160006101000a81548173ffffffffffffffffffffffffffffffffffffffff021916908373ffffffffffffffffffffffffffffffffffffffff1602179055503073ffffffffffffffffffffffffffffffffffffffff163190506002818115156103e557fe5b04600281905550600160009054906101000a900473ffffffffffffffffffffffffffffffffffffffff1673ffffffffffffffffffffffffffffffffffffffff166108fc6002549081150290604051600060405180830381858888f19350505050158015610456573d6000803e3d6000fd5b505b505050565b610465610b54565b60408051908101604052808473ffffffffffffffffffffffffffffffffffffffff1681526020018367ffffffffffffffff168152509050600a600380549050101561061457600382908060018154018082558091505090600182039060005260206000209060049182820401919006600802909192909190916101000a81548167ffffffffffffffff021916908367ffffffffffffffff16021790555050610590600380548060200260200160405190810160405280929190818152602001828054801561058657602002820191906000526020600020906000905b82829054906101000a900467ffffffffffffffff1667ffffffffffffffff16815260200190600801906020826007010492830192600103820291508084116105415790505b5050505050610988565b506006819080600181540180825580915050906001820390600052602060002090600202016000909192909190915060008201518160000160006101000a81548173ffffffffffffffffffffffffffffffffffffffff021916908373ffffffffffffffffffffffffffffffffffffffff160217905550602082015181600101555050505b600a600380549050141561082657600382908060018154018082558091505090600182039060005260206000209060049182820401919006600802909192909190916101000a81548167ffffffffffffffff021916908367ffffffffffffffff160217905550506006819080600181540180825580915050906001820390600052602060002090600202016000909192909190915060008201518160000160006101000a81548173ffffffffffffffffffffffffffffffffffffffff021916908373ffffffffffffffffffffffffffffffffffffffff1602179055506020820151816001015550505061078a600380548060200260200160405190810160405280929190818152602001828054801561078057602002820191906000526020600020906000905b82829054906101000a900467ffffffffffffffff1667ffffffffffffffff168152602001906008019060208260070104928301926001038202915080841161073b5790505b5050505050610988565b5060036001600380549050038154811015156107a257fe5b90600052602060002090600491828204019190066008026101000a81549067ffffffffffffffff021916905560066001600680549050038154811015156107e557fe5b9060005260206000209060020201600080820160006101000a81549073ffffffffffffffffffffffffffffffffffffffff0219169055600182016000905550505b505050565b600060038281548110151561083c57fe5b90600052602060002090600491828204019190066008029054906101000a900467ffffffffffffffff169050919050565b60008060003073ffffffffffffffffffffffffffffffffffffffff1631925060648381151561089857fe5b04600281905550600091505b600a821015610946576006828154811015156108bc57fe5b906000526020600020906002020160000160009054906101000a900473ffffffffffffffffffffffffffffffffffffffff1690508073ffffffffffffffffffffffffffffffffffffffff166108fc6002549081150290604051600060405180830381858888f19350505050158015610938573d6000803e3d6000fd5b5081806001019250506108a4565b505050565b60038181548110151561095a57fe5b9060005260206000209060049182820401919006600802915054906101000a900467ffffffffffffffff1681565b606060006060600080600086519450846040519080825280602002602001820160405280156109c65781602001602082028038833980820191505090505b509350600092505b84831015610a2d5786838151811015156109e457fe5b9060200190602002015184848151811015156109fc57fe5b9060200190602002019067ffffffffffffffff16908167ffffffffffffffff168152505082806001019350506109ce565b600092505b84831015610b45576001830191505b84821015610b38578382815181101515610a5757fe5b9060200190602002015167ffffffffffffffff168484815181101515610a7957fe5b9060200190602002015167ffffffffffffffff161015610b2b578382815181101515610aa157fe5b9060200190602002015190508383815181101515610abb57fe5b906020019060200201518483815181101515610ad357fe5b9060200190602002019067ffffffffffffffff16908167ffffffffffffffff1681525050808484815181101515610b0657fe5b9060200190602002019067ffffffffffffffff16908167ffffffffffffffff16815250505b8180600101925050610a41565b8280600101935050610a32565b8395505050505050919050565b565b6040805190810160405280600073ffffffffffffffffffffffffffffffffffffffff1681526020016000815250905600a165627a7a72305820a5605cd7884ff31f43727e234ad97ae4718e2040da842dca9f3e109ace83f2f50029",
  "source": "pragma solidity ^0.4.24;\r\n//pragma experimental ABIEncoderV2;\r\n\r\ncontract Flappy {\r\n    /* Define variable owner of the type address */\r\n\r\n\r\n\r\n    uint private highScore = 0;\r\n    address private highScoreAddress;\r\n    uint private payout;\r\n    uint64[] public topTen;\r\n\r\n    address owner;\r\n    bytes32 name;\r\n    \r\n    constructor(bytes32 _name) public {\r\n        // State variables are accessed via their name\r\n        // and not via e.g. this.owner. This also applies\r\n        // to functions and especially in the constructors,\r\n        // you can only call them like that (\"internally\"),\r\n        // because the contract itself does not exist yet.\r\n        owner = msg.sender;\r\n        // We do an explicit type conversion from `address`\r\n        // to `TokenCreator` and assume that the type of\r\n        // the calling contract is TokenCreator, there is\r\n        // no real way to check that.\r\n\r\n        name = _name;\r\n    }\r\n\r\n    \r\n    function() payable public {\r\n    }\r\n    \r\n    struct player{\r\n        address addr;\r\n        uint score;\r\n    }\r\n    \r\n    player[] leaderboard;\r\n    \r\n\r\n    \r\n    //when someone plays, they send eth to the smart contract that is added to the pot\r\n    //when they are finished playing, their score and address get sent to this contract\r\n    //their score and address is added to the ranking list, and removed if not in top 10\r\n    //if the person just acheived the highscore, they instantly get half the pot\r\n    //when this happens, 10% of the pot is split between the top 10 on the ranking board\r\n\r\n    function checkScore(address playerAddress, uint64 playerScore) public returns(uint) {\r\n        //checks if score is in the top 10, adds it to top 10 if so\r\n        checkInTopTen(playerAddress, playerScore);\r\n        //checks if score is the highest, if so disburse give 50% of pot\r\n        checkHighScore(playerAddress, playerScore);\r\n        //pay 1% of pot to each address in top 10\r\n        //payDividendsToTopTen();\r\n        return playerScore;\r\n\r\n\r\n        \r\n    }\r\n    \r\n    function getTopTen(uint index) public returns (uint64) {\r\n        return topTen[index];\r\n    } \r\n\r\n    //only check the score of the address if it has been confirmed to pay to play the game\r\n    function checkIfPaid() public{\r\n        \r\n    }\r\n    \r\n    function checkHighScore(address playerAddress, uint64 playerScore) public payable{\r\n        if (playerScore > highScore) {\r\n           //set old high score to new high score\r\n            highScore = playerScore;\r\n            //set address to pay winner\r\n            highScoreAddress = playerAddress;\r\n            //get current pot balance\r\n            uint256 currentBalance = address(this).balance;\r\n            payout = currentBalance/2;\r\n            //send eth\r\n            highScoreAddress.transfer(payout);\r\n        }\r\n    }\r\n    \r\n    function checkInTopTen(address playerAddress, uint64 playerScore) public {\r\n        //create new struct with player's info\r\n        player memory newPlayer = player(playerAddress, playerScore);\r\n        //if top ten list isn't full yet, add player to top 10\r\n        if (topTen.length < 10){\r\n            topTen.push(playerScore);\r\n            //sort scores\r\n            sort_array(topTen);\r\n            leaderboard.push(newPlayer);\r\n        }\r\n        if (topTen.length == 10) {\r\n            topTen.push(playerScore);\r\n            leaderboard.push(newPlayer);\r\n            sort_array(topTen);  \r\n            delete topTen[topTen.length-1];\r\n            delete leaderboard[leaderboard.length-1];\r\n        } \r\n    }\r\n    \r\n    function payDividendsToTopTen() public {\r\n        uint256 currentBalance = address(this).balance;\r\n        payout = currentBalance/100;\r\n        for(uint i=0;i<10;i++){\r\n            address recieverAddress = leaderboard[i].addr;\r\n            recieverAddress.transfer(payout);\r\n        }\r\n        \r\n    \r\n    }\r\n        \r\n    \r\n//quicksort function\r\n    function sort_array(uint64[] arr_) public returns (uint64 [] ){\r\n        uint256 l = arr_.length;\r\n        uint64[] memory arr = new uint64[] (l);\r\n    \r\n        for(uint i=0;i<l;i++)\r\n        {\r\n            arr[i] = arr_[i];\r\n        }\r\n    \r\n        for(i =0;i<l;i++)\r\n        {\r\n            for(uint j =i+1;j<l;j++)\r\n            {\r\n                if(arr[i]<arr[j])\r\n                {\r\n                    uint64 temp= arr[j];\r\n                    arr[j]=arr[i];\r\n                    arr[i] = temp;\r\n    \r\n                }\r\n    \r\n            }\r\n        }\r\n\r\n    return arr;\r\n}\r\n\r\n\r\n}\r\n\r\n    \r\n    \r\n    \r\n\r\n    \r\n    \r\n\r\n\r\n",
  "sourcePath": "/Users/kiba/code/floppybird/smart-contracts/contracts/flappy.sol",
  "compiler": {
    "name": "solc",
    "version": "0.4.24+commit.e67f0147.Emscripten.clang"
  },
  "schemaVersion": "2.0.1",
  "updatedAt": "2018-08-09T05:18:51.157Z"
}