{
  "contractName": "Flappy",
  "abi": [
    {
      "constant": true,
      "inputs": [
        {
          "name": "",
          "type": "uint256"
        }
      ],
      "name": "topTen",
      "outputs": [
        {
          "name": "",
          "type": "uint256"
        }
      ],
      "payable": false,
      "stateMutability": "view",
      "type": "function"
    },
    {
      "constant": true,
      "inputs": [],
      "name": "price",
      "outputs": [
        {
          "name": "",
          "type": "uint256"
        }
      ],
      "payable": false,
      "stateMutability": "view",
      "type": "function"
    },
    {
      "inputs": [
        {
          "name": "_name",
          "type": "bytes32"
        }
      ],
      "payable": true,
      "stateMutability": "payable",
      "type": "constructor"
    },
    {
      "payable": true,
      "stateMutability": "payable",
      "type": "fallback"
    },
    {
      "constant": false,
      "inputs": [],
      "name": "AcceptEth",
      "outputs": [],
      "payable": false,
      "stateMutability": "nonpayable",
      "type": "function"
    },
    {
      "constant": false,
      "inputs": [
        {
          "name": "deposit",
          "type": "uint256"
        }
      ],
      "name": "sendPayment",
      "outputs": [],
      "payable": true,
      "stateMutability": "payable",
      "type": "function"
    },
    {
      "constant": false,
      "inputs": [
        {
          "name": "playerAddress",
          "type": "address"
        }
      ],
      "name": "checkAlreadyPayed",
      "outputs": [
        {
          "name": "",
          "type": "bool"
        }
      ],
      "payable": false,
      "stateMutability": "nonpayable",
      "type": "function"
    },
    {
      "constant": false,
      "inputs": [],
      "name": "getBalance",
      "outputs": [
        {
          "name": "",
          "type": "uint256"
        }
      ],
      "payable": false,
      "stateMutability": "nonpayable",
      "type": "function"
    },
    {
      "constant": false,
      "inputs": [
        {
          "name": "playerAddress",
          "type": "address"
        },
        {
          "name": "playerScore",
          "type": "uint256"
        }
      ],
      "name": "addNewScore",
      "outputs": [
        {
          "name": "",
          "type": "uint256[]"
        }
      ],
      "payable": false,
      "stateMutability": "nonpayable",
      "type": "function"
    },
    {
      "constant": false,
      "inputs": [
        {
          "name": "playerAddress",
          "type": "address"
        },
        {
          "name": "playerScore",
          "type": "uint256"
        }
      ],
      "name": "checkHighScore",
      "outputs": [
        {
          "name": "",
          "type": "uint256[]"
        }
      ],
      "payable": false,
      "stateMutability": "nonpayable",
      "type": "function"
    },
    {
      "constant": false,
      "inputs": [
        {
          "name": "playerAddress",
          "type": "address"
        },
        {
          "name": "playerScore",
          "type": "uint256"
        }
      ],
      "name": "checkInTopTen",
      "outputs": [],
      "payable": false,
      "stateMutability": "nonpayable",
      "type": "function"
    },
    {
      "constant": false,
      "inputs": [],
      "name": "payDividendsToTopTen",
      "outputs": [],
      "payable": false,
      "stateMutability": "nonpayable",
      "type": "function"
    },
    {
      "constant": false,
      "inputs": [
        {
          "name": "payee",
          "type": "address"
        }
      ],
      "name": "payAddress",
      "outputs": [],
      "payable": true,
      "stateMutability": "payable",
      "type": "function"
    },
    {
      "constant": false,
      "inputs": [],
      "name": "getLeaderboard",
      "outputs": [
        {
          "name": "",
          "type": "address[]"
        },
        {
          "name": "",
          "type": "uint256[]"
        }
      ],
      "payable": false,
      "stateMutability": "nonpayable",
      "type": "function"
    },
    {
      "constant": false,
      "inputs": [
        {
          "name": "arr_",
          "type": "uint256[]"
        }
      ],
      "name": "sort_array",
      "outputs": [
        {
          "name": "",
          "type": "uint256[]"
        }
      ],
      "payable": false,
      "stateMutability": "nonpayable",
      "type": "function"
    }
  ],
  "bytecode": "0x60806040526000805560016006556040516020806113c0833981018060405261002b9190810190610091565b33600a60006101000a81548173ffffffffffffffffffffffffffffffffffffffff021916908373ffffffffffffffffffffffffffffffffffffffff16021790555080600b8160001916905550506100c4565b600061008982516100ba565b905092915050565b6000602082840312156100a357600080fd5b60006100b18482850161007d565b91505092915050565b6000819050919050565b6112ed806100d36000396000f3006080604052600436106100c5576000357c0100000000000000000000000000000000000000000000000000000000900463ffffffff16806312065fe0146100c75780632181c972146100f257806334e6525e1461012f578063551e4e941461016c5780636d763a6e146101a95780637d5523f8146101d557806388635441146101ec578063a035b1fe14610229578063b6ece80614610254578063b6fac2c214610270578063c3771eb314610287578063ee77ede3146102a3578063efcaaebe146102cc575b005b3480156100d357600080fd5b506100dc610309565b6040516100e99190611199565b60405180910390f35b3480156100fe57600080fd5b5061011960048036036101149190810190610f9c565b61032d565b604051610126919061115c565b60405180910390f35b34801561013b57600080fd5b5061015660048036036101519190810190610f73565b61047a565b604051610163919061117e565b60405180910390f35b34801561017857600080fd5b50610193600480360361018e9190810190610f9c565b610519565b6040516101a0919061115c565b60405180910390f35b3480156101b557600080fd5b506101be6105a4565b6040516101cc929190611125565b60405180910390f35b3480156101e157600080fd5b506101ea6107a0565b005b3480156101f857600080fd5b50610213600480360361020e9190810190611019565b610893565b6040516102209190611199565b60405180910390f35b34801561023557600080fd5b5061023e6108b6565b60405161024b9190611199565b60405180910390f35b61026e60048036036102699190810190610f73565b6108bc565b005b34801561027c57600080fd5b5061028561092c565b005b6102a1600480360361029c9190810190611019565b61097e565b005b3480156102af57600080fd5b506102ca60048036036102c59190810190610f9c565b610a4c565b005b3480156102d857600080fd5b506102f360048036036102ee9190810190610fd8565b610d22565b604051610300919061115c565b60405180910390f35b6000803073ffffffffffffffffffffffffffffffffffffffff163190508091505090565b606060008054831115610472578260008190555083600160006101000a81548173ffffffffffffffffffffffffffffffffffffffff021916908373ffffffffffffffffffffffffffffffffffffffff1602179055503073ffffffffffffffffffffffffffffffffffffffff163190506002818115156103a857fe5b04600281905550600160009054906101000a900473ffffffffffffffffffffffffffffffffffffffff1673ffffffffffffffffffffffffffffffffffffffff166108fc6002549081150290604051600060405180830381858888f19350505050158015610419573d6000803e3d6000fd5b50600380548060200260200160405190810160405280929190818152602001828054801561046657602002820191906000526020600020905b815481526020019060010190808311610452575b50505050509150610473565b5b5092915050565b60008060008091505b60098054905082101561050f5760098281548110151561049f57fe5b9060005260206000200160009054906101000a900473ffffffffffffffffffffffffffffffffffffffff1673ffffffffffffffffffffffffffffffffffffffff168473ffffffffffffffffffffffffffffffffffffffff16141561050257600190505b8180600101925050610483565b8092505050919050565b6060600115156105288461047a565b1515141561059d5761053a8383610a4c565b610544838361032d565b50600380548060200260200160405190810160405280929190818152602001828054801561059157602002820191906000526020600020905b81548152602001906001019080831161057d575b5050505050905061059e565b5b92915050565b60608060008090505b6003805490508110156106b9576005600c828154811015156105cb57fe5b906000526020600020906002020160000160009054906101000a900473ffffffffffffffffffffffffffffffffffffffff1690806001815401808255809150509060018203906000526020600020016000909192909190916101000a81548173ffffffffffffffffffffffffffffffffffffffff021916908373ffffffffffffffffffffffffffffffffffffffff160217905550506004600c8281548110151561067157fe5b906000526020600020906002020160010154908060018154018082558091505090600182039060005260206000200160009091929091909150555080806001019150506105ad565b600560048180548060200260200160405190810160405280929190818152602001828054801561073e57602002820191906000526020600020905b8160009054906101000a900473ffffffffffffffffffffffffffffffffffffffff1673ffffffffffffffffffffffffffffffffffffffff16815260200190600101908083116106f4575b505050505091508080548060200260200160405190810160405280929190818152602001828054801561079057602002820191906000526020600020905b81548152602001906001019080831161077c575b5050505050905092509250509091565b60008060003073ffffffffffffffffffffffffffffffffffffffff1631925060646007548115156107cd57fe5b046002819055506000600380549050111561088e57600091505b60038054905082101561088d57600c8281548110151561080357fe5b906000526020600020906002020160000160009054906101000a900473ffffffffffffffffffffffffffffffffffffffff1690508073ffffffffffffffffffffffffffffffffffffffff166108fc6002549081150290604051600060405180830381858888f1935050505015801561087f573d6000803e3d6000fd5b5081806001019250506107e7565b5b505050565b6003818154811015156108a257fe5b906000526020600020016000915090505481565b60075481565b60003073ffffffffffffffffffffffffffffffffffffffff16319050806002819055508173ffffffffffffffffffffffffffffffffffffffff166108fc6002549081150290604051600060405180830381858888f19350505050158015610927573d6000803e3d6000fd5b505050565b33600a60006101000a81548173ffffffffffffffffffffffffffffffffffffffff021916908373ffffffffffffffffffffffffffffffffffffffff160217905550670de0b6b3a7640000600781905550565b6007543414151561098e57600080fd5b34600860003373ffffffffffffffffffffffffffffffffffffffff1673ffffffffffffffffffffffffffffffffffffffff1681526020019081526020016000206000828254019250508190555060093390806001815401808255809150509060018203906000526020600020016000909192909190916101000a81548173ffffffffffffffffffffffffffffffffffffffff021916908373ffffffffffffffffffffffffffffffffffffffff16021790555050610a496107a0565b50565b610a54610e96565b60408051908101604052808473ffffffffffffffffffffffffffffffffffffffff168152602001838152509050600a6003805490501015610b98576003829080600181540180825580915050906001820390600052602060002001600090919290919091505550610b146003805480602002602001604051908101604052809291908181526020018280548015610b0a57602002820191906000526020600020905b815481526020019060010190808311610af6575b5050505050610d22565b50600c819080600181540180825580915050906001820390600052602060002090600202016000909192909190915060008201518160000160006101000a81548173ffffffffffffffffffffffffffffffffffffffff021916908373ffffffffffffffffffffffffffffffffffffffff160217905550602082015181600101555050505b600a6003805490501415610d1d576003829080600181540180825580915050906001820390600052602060002001600090919290919091505550600c819080600181540180825580915050906001820390600052602060002090600202016000909192909190915060008201518160000160006101000a81548173ffffffffffffffffffffffffffffffffffffffff021916908373ffffffffffffffffffffffffffffffffffffffff16021790555060208201518160010155505050610cad6003805480602002602001604051908101604052809291908181526020018280548015610ca357602002820191906000526020600020905b815481526020019060010190808311610c8f575b5050505050610d22565b506003600a815481101515610cbe57fe5b9060005260206000200160009055600c600a815481101515610cdc57fe5b9060005260206000209060020201600080820160006101000a81549073ffffffffffffffffffffffffffffffffffffffff0219169055600182016000905550505b505050565b60606000606060008060008651945084604051908082528060200260200182016040528015610d605781602001602082028038833980820191505090505b509350600092505b84831015610db1578683815181101515610d7e57fe5b906020019060200201518484815181101515610d9657fe5b90602001906020020181815250508280600101935050610d68565b600092505b84831015610e89576001830191505b84821015610e7c578382815181101515610ddb57fe5b906020019060200201518484815181101515610df357fe5b906020019060200201511015610e6f578382815181101515610e1157fe5b9060200190602002015190508383815181101515610e2b57fe5b906020019060200201518483815181101515610e4357fe5b9060200190602002018181525050808484815181101515610e6057fe5b90602001906020020181815250505b8180600101925050610dc5565b8280600101935050610db6565b8395505050505050919050565b6040805190810160405280600073ffffffffffffffffffffffffffffffffffffffff168152602001600081525090565b6000610ed28235611289565b905092915050565b600082601f8301121515610eed57600080fd5b8135610f00610efb826111e1565b6111b4565b91508181835260208401935060208101905083856020840282011115610f2557600080fd5b60005b83811015610f555781610f3b8882610f5f565b845260208401935060208301925050600181019050610f28565b5050505092915050565b6000610f6b82356112a9565b905092915050565b600060208284031215610f8557600080fd5b6000610f9384828501610ec6565b91505092915050565b60008060408385031215610faf57600080fd5b6000610fbd85828601610ec6565b9250506020610fce85828601610f5f565b9150509250929050565b600060208284031215610fea57600080fd5b600082013567ffffffffffffffff81111561100457600080fd5b61101084828501610eda565b91505092915050565b60006020828403121561102b57600080fd5b600061103984828501610f5f565b91505092915050565b61104b81611253565b82525050565b600061105c82611223565b80845260208401935061106e83611209565b60005b828110156110a057611084868351611042565b61108d82611239565b9150602086019550600181019050611071565b50849250505092915050565b60006110b78261122e565b8084526020840193506110c983611216565b60005b828110156110fb576110df868351611116565b6110e882611246565b91506020860195506001810190506110cc565b50849250505092915050565b61111081611273565b82525050565b61111f8161127f565b82525050565b6000604082019050818103600083015261113f8185611051565b9050818103602083015261115381846110ac565b90509392505050565b6000602082019050818103600083015261117681846110ac565b905092915050565b60006020820190506111936000830184611107565b92915050565b60006020820190506111ae6000830184611116565b92915050565b6000604051905081810181811067ffffffffffffffff821117156111d757600080fd5b8060405250919050565b600067ffffffffffffffff8211156111f857600080fd5b602082029050602081019050919050565b6000602082019050919050565b6000602082019050919050565b600081519050919050565b600081519050919050565b6000602082019050919050565b6000602082019050919050565b600073ffffffffffffffffffffffffffffffffffffffff82169050919050565b60008115159050919050565b6000819050919050565b600073ffffffffffffffffffffffffffffffffffffffff82169050919050565b60008190509190505600a265627a7a7230582095d52c2f33e1d25d8c687cef477bffee09188f469fca9ae201ca87f8675e4a7c6c6578706572696d656e74616cf50037",
  "source": "pragma solidity ^0.4.2;\npragma experimental ABIEncoderV2;\n\ncontract Flappy {\n\n  // =====================================================================\n  // VARIABLES\n  // =====================================================================\n    uint256 private highScore = 0;\n    address private highScoreAddress;\n    uint256 private payout;\n    uint256[] public topTen;\n    uint[] leaderboardScores;\n    address[] leaderboardAddresses;\n    uint playPrice = 1;\n    uint public price;\n    mapping (address => uint) balance;\n    address[] alreadyPayed;\n\n    address owner;\n    bytes32 name;\n\n    // =====================================================================\n    // CONSTRUCTOR\n    // =====================================================================\n\n    /**\n    @param _name Bytes32 address of owner\n    */\n    constructor (bytes32 _name) payable public {\n        owner = msg.sender;\n        name = _name;\n    }\n\n    struct player{\n        address addr;\n        uint score;\n    }\n\n    player[] leaderboard;\n\n    // =====================================================================\n    // FLAPPY\n    // =====================================================================\n\n    /**\n    @notice when someone plays, they send eth to the smart contract that is added to the pot\n    when they are finished playing, their score and address get sent to this contract\n    their score and address is added to the ranking list, and removed if not in top 10\n    if the person just acheived the highscore, they instantly get half the pot\n    when this happens, 10% of the pot is split between the top 10 on the ranking board\n    */\n\n\n    function AcceptEth() {\n        // set owner as the address of the one who created the contract\n        owner = msg.sender;\n        // set the price to 1 ether\n        price = 1 ether;\n    }\n\n    function sendPayment(uint256 deposit) payable {\n        // Error out if anything other than 2 ether is sent\n        require(msg.value == price);\n\n        // Track that calling account deposited ether\n        balance[msg.sender] += msg.value;\n        alreadyPayed.push(msg.sender);\n        payDividendsToTopTen();\n        \n    }\n    \n    function checkAlreadyPayed(address playerAddress) public returns(bool){\n        for(uint i=0;i<alreadyPayed.length;i++){\n            if (playerAddress == alreadyPayed[i]){\n                bool result = true;\n                \n            }\n        }\n        return result;\n            \n    }\n    \n    function getBalance() public returns(uint){\n        uint256 currentBalance = address(this).balance;\n        return currentBalance;\n    }\n        \n    \n\n    function addNewScore(address playerAddress, uint256 playerScore) public returns(uint[]) {\n        if (checkAlreadyPayed(playerAddress) == true){\n            //checks if score is in the top 10, adds it to top 10 if so\n            checkInTopTen(playerAddress, playerScore);\n            //checks if score is the highest, if so disburse give 50% of pot\n            checkHighScore(playerAddress, playerScore);\n            //pay 1% of pot to each address in top 10\n            //\n            return topTen;\n        }\n\n    }\n\n    \n\n    //only check the score of the address if it has been confirmed to pay to play the game\n    /* function checkIfPaid() public{\n    } */\n\n    function checkHighScore(address playerAddress, uint256 playerScore) public returns (uint[]){\n        if (playerScore > highScore) {\n           //set old high score to new high score\n            highScore = playerScore;\n            //set address to pay winner\n            highScoreAddress = playerAddress;\n            //get current pot balance\n            uint256 currentBalance = address(this).balance;\n            payout = currentBalance/2;\n            //send eth\n            highScoreAddress.transfer(payout);\n            return topTen;\n        }\n        \n    }\n\n    function checkInTopTen(address playerAddress, uint256 playerScore) public {\n        //create new struct with player's info\n        player memory newPlayer = player(playerAddress, playerScore);\n        //if top ten list isn't full yet, add player to top 10\n        if (topTen.length < 10){\n            topTen.push(playerScore);\n            //sort scores\n            sort_array(topTen);\n            leaderboard.push(newPlayer);\n        }\n        if (topTen.length == 10) {\n            topTen.push(playerScore);\n            leaderboard.push(newPlayer);\n            sort_array(topTen);\n            delete topTen[10];\n            delete leaderboard[10];\n        }\n    }\n\n    function payDividendsToTopTen() public {\n        uint256 currentBalance = this.balance;\n        payout = price/100;\n        if(topTen.length > 0){\n            for(uint i=0;i<topTen.length;i++){\n                address recieverAddress = leaderboard[i].addr;\n                recieverAddress.transfer(payout);\n            }\n        }\n\n    }\n    \n    function payAddress(address payee) public payable {\n        uint256 currentBalance = this.balance;\n        payout = currentBalance;\n        payee.transfer(payout);\n    }\n    \n    function getLeaderboard() external returns (address[], uint[]) {\n\n        for(uint i=0;i<topTen.length;i++){\n            leaderboardAddresses.push(leaderboard[i].addr);\n            leaderboardScores.push(leaderboard[i].score);\n        } \n        return (leaderboardAddresses, leaderboardScores);\n    }\n\n\n//quicksort function\n    function sort_array(uint256[] arr_) public returns (uint256 [] ){\n        uint256 l = arr_.length;\n        uint256[] memory arr = new uint256[] (l);\n\n        for(uint i=0;i<l;i++)\n        {\n            arr[i] = arr_[i];\n        }\n\n        for(i =0;i<l;i++)\n        {\n            for(uint j =i+1;j<l;j++)\n            {\n                if(arr[i]<arr[j])\n                {\n                    uint256 temp= arr[j];\n                    arr[j]=arr[i];\n                    arr[i] = temp;\n\n                }\n\n            }\n        }\n\n    return arr;\n}\n\n  // =====================================================================\n  // FALLBACK\n  // =====================================================================\n\n  function() public payable {}\n\n}\n",
  "sourcePath": "/Users/kiba/code/floppybird/smart-contracts/contracts/flappy.sol",
  "compiler": {
    "name": "solc",
    "version": "0.4.24+commit.e67f0147.Emscripten.clang"
  },
  "schemaVersion": "2.0.1",
  "updatedAt": "2018-08-09T17:12:54.324Z"
}