{
  "contractName": "Flappy",
  "abi": [
    {
      "constant": true,
      "inputs": [
        {
          "name": "",
          "type": "uint256"
        }
      ],
      "name": "topTen",
      "outputs": [
        {
          "name": "",
          "type": "uint256"
        }
      ],
      "payable": false,
      "stateMutability": "view",
      "type": "function"
    },
    {
      "inputs": [
        {
          "name": "_name",
          "type": "bytes32"
        }
      ],
      "payable": false,
      "stateMutability": "nonpayable",
      "type": "constructor"
    },
    {
      "payable": true,
      "stateMutability": "payable",
      "type": "fallback"
    },
    {
      "constant": false,
      "inputs": [
        {
          "name": "playerAddress",
          "type": "address"
        },
        {
          "name": "playerScore",
          "type": "uint256"
        }
      ],
      "name": "checkScore",
      "outputs": [
        {
          "name": "",
          "type": "uint256"
        }
      ],
      "payable": false,
      "stateMutability": "nonpayable",
      "type": "function"
    },
    {
      "constant": true,
      "inputs": [
        {
          "name": "index",
          "type": "uint256"
        }
      ],
      "name": "getTopTen",
      "outputs": [
        {
          "name": "",
          "type": "uint256"
        }
      ],
      "payable": false,
      "stateMutability": "view",
      "type": "function"
    },
    {
      "constant": false,
      "inputs": [
        {
          "name": "playerAddress",
          "type": "address"
        },
        {
          "name": "playerScore",
          "type": "uint256"
        }
      ],
      "name": "checkHighScore",
      "outputs": [],
      "payable": true,
      "stateMutability": "payable",
      "type": "function"
    },
    {
      "constant": false,
      "inputs": [
        {
          "name": "playerAddress",
          "type": "address"
        },
        {
          "name": "playerScore",
          "type": "uint256"
        }
      ],
      "name": "checkInTopTen",
      "outputs": [],
      "payable": false,
      "stateMutability": "nonpayable",
      "type": "function"
    },
    {
      "constant": false,
      "inputs": [],
      "name": "payDividendsToTopTen",
      "outputs": [],
      "payable": false,
      "stateMutability": "nonpayable",
      "type": "function"
    },
    {
      "constant": false,
      "inputs": [
        {
          "name": "arr_",
          "type": "uint256[]"
        }
      ],
      "name": "sort_array",
      "outputs": [
        {
          "name": "",
          "type": "uint256[]"
        }
      ],
      "payable": false,
      "stateMutability": "nonpayable",
      "type": "function"
    }
  ],
  "bytecode": "0x60806040526000805534801561001457600080fd5b50604051602080610a428339810180604052810190808051906020019092919050505033600460006101000a81548173ffffffffffffffffffffffffffffffffffffffff021916908373ffffffffffffffffffffffffffffffffffffffff1602179055508060058160001916905550506109af806100936000396000f300608060405260043610610083576000357c0100000000000000000000000000000000000000000000000000000000900463ffffffff1680632181c972146100855780634f5aca4e146100c5578063756f0f4a146101265780637d5523f814610167578063886354411461017e578063ee77ede3146101bf578063efcaaebe1461020c575b005b6100c3600480360381019080803573ffffffffffffffffffffffffffffffffffffffff169060200190929190803590602001909291905050506102c7565b005b3480156100d157600080fd5b50610110600480360381019080803573ffffffffffffffffffffffffffffffffffffffff169060200190929190803590602001909291905050506103b8565b6040518082815260200191505060405180910390f35b34801561013257600080fd5b50610151600480360381019080803590602001909291905050506103d7565b6040518082815260200191505060405180910390f35b34801561017357600080fd5b5061017c6103fa565b005b34801561018a57600080fd5b506101a9600480360381019080803590602001909291905050506104d8565b6040518082815260200191505060405180910390f35b3480156101cb57600080fd5b5061020a600480360381019080803573ffffffffffffffffffffffffffffffffffffffff169060200190929190803590602001909291905050506104fb565b005b34801561021857600080fd5b50610270600480360381019080803590602001908201803590602001908080602002602001604051908101604052809392919081815260200183836020028082843782019150505050505091929192905050506107df565b6040518080602001828103825283818151815260200191508051906020019060200280838360005b838110156102b3578082015181840152602081019050610298565b505050509050019250505060405180910390f35b600080548211156103b3578160008190555082600160006101000a81548173ffffffffffffffffffffffffffffffffffffffff021916908373ffffffffffffffffffffffffffffffffffffffff1602179055503073ffffffffffffffffffffffffffffffffffffffff1631905060028181151561034057fe5b04600281905550600160009054906101000a900473ffffffffffffffffffffffffffffffffffffffff1673ffffffffffffffffffffffffffffffffffffffff166108fc6002549081150290604051600060405180830381858888f193505050501580156103b1573d6000803e3d6000fd5b505b505050565b60006103c483836104fb565b6103ce83836102c7565b81905092915050565b60006003828154811015156103e857fe5b90600052602060002001549050919050565b60008060003073ffffffffffffffffffffffffffffffffffffffff1631925060648381151561042557fe5b04600281905550600091505b600a8210156104d35760068281548110151561044957fe5b906000526020600020906002020160000160009054906101000a900473ffffffffffffffffffffffffffffffffffffffff1690508073ffffffffffffffffffffffffffffffffffffffff166108fc6002549081150290604051600060405180830381858888f193505050501580156104c5573d6000803e3d6000fd5b508180600101925050610431565b505050565b6003818154811015156104e757fe5b906000526020600020016000915090505481565b610503610953565b60408051908101604052808473ffffffffffffffffffffffffffffffffffffffff168152602001838152509050600a60038054905010156106475760038290806001815401808255809150509060018203906000526020600020016000909192909190915055506105c360038054806020026020016040519081016040528092919081815260200182805480156105b957602002820191906000526020600020905b8154815260200190600101908083116105a5575b50505050506107df565b506006819080600181540180825580915050906001820390600052602060002090600202016000909192909190915060008201518160000160006101000a81548173ffffffffffffffffffffffffffffffffffffffff021916908373ffffffffffffffffffffffffffffffffffffffff160217905550602082015181600101555050505b600a60038054905014156107da5760038290806001815401808255809150509060018203906000526020600020016000909192909190915055506006819080600181540180825580915050906001820390600052602060002090600202016000909192909190915060008201518160000160006101000a81548173ffffffffffffffffffffffffffffffffffffffff021916908373ffffffffffffffffffffffffffffffffffffffff1602179055506020820151816001015550505061075c600380548060200260200160405190810160405280929190818152602001828054801561075257602002820191906000526020600020905b81548152602001906001019080831161073e575b50505050506107df565b50600360016003805490500381548110151561077457fe5b9060005260206000200160009055600660016006805490500381548110151561079957fe5b9060005260206000209060020201600080820160006101000a81549073ffffffffffffffffffffffffffffffffffffffff0219169055600182016000905550505b505050565b6060600060606000806000865194508460405190808252806020026020018201604052801561081d5781602001602082028038833980820191505090505b509350600092505b8483101561086e57868381518110151561083b57fe5b90602001906020020151848481518110151561085357fe5b90602001906020020181815250508280600101935050610825565b600092505b84831015610946576001830191505b8482101561093957838281518110151561089857fe5b9060200190602002015184848151811015156108b057fe5b90602001906020020151101561092c5783828151811015156108ce57fe5b90602001906020020151905083838151811015156108e857fe5b90602001906020020151848381518110151561090057fe5b906020019060200201818152505080848481518110151561091d57fe5b90602001906020020181815250505b8180600101925050610882565b8280600101935050610873565b8395505050505050919050565b6040805190810160405280600073ffffffffffffffffffffffffffffffffffffffff1681526020016000815250905600a165627a7a7230582002207d3279e8f1a861ef2da193b3e9ccc721a55ac79f4db4ccd774b8d18e42820029",
  "source": "pragma solidity ^0.4.2;\n//pragma experimental ABIEncoderV2;\n\ncontract Flappy {\n\n  // =====================================================================\n  // VARIABLES\n  // =====================================================================\n    uint256 private highScore = 0;\n    address private highScoreAddress;\n    uint256 private payout;\n    uint256[] public topTen;\n\n    address owner;\n    bytes32 name;\n\n    // =====================================================================\n    // CONSTRUCTOR\n    // =====================================================================\n\n    /**\n    @param _name Bytes32 address of owner\n    */\n    constructor (bytes32 _name) public {\n        owner = msg.sender;\n        name = _name;\n    }\n\n    struct player{\n        address addr;\n        uint score;\n    }\n\n    player[] leaderboard;\n\n    // =====================================================================\n    // FLAPPY\n    // =====================================================================\n\n    /**\n    @notice when someone plays, they send eth to the smart contract that is added to the pot\n    when they are finished playing, their score and address get sent to this contract\n    their score and address is added to the ranking list, and removed if not in top 10\n    if the person just acheived the highscore, they instantly get half the pot\n    when this happens, 10% of the pot is split between the top 10 on the ranking board\n    */\n\n    function checkScore(address playerAddress, uint256 playerScore) public returns(uint) {\n        //checks if score is in the top 10, adds it to top 10 if so\n        checkInTopTen(playerAddress, playerScore);\n        //checks if score is the highest, if so disburse give 50% of pot\n        checkHighScore(playerAddress, playerScore);\n        //pay 1% of pot to each address in top 10\n        //payDividendsToTopTen();\n        return playerScore;\n    }\n\n    function getTopTen(uint index) public view returns (uint256) {\n        return topTen[index];\n    }\n\n    //only check the score of the address if it has been confirmed to pay to play the game\n    /* function checkIfPaid() public{\n    } */\n\n    function checkHighScore(address playerAddress, uint256 playerScore) public payable{\n        if (playerScore > highScore) {\n           //set old high score to new high score\n            highScore = playerScore;\n            //set address to pay winner\n            highScoreAddress = playerAddress;\n            //get current pot balance\n            uint256 currentBalance = address(this).balance;\n            payout = currentBalance/2;\n            //send eth\n            highScoreAddress.transfer(payout);\n        }\n    }\n\n    function checkInTopTen(address playerAddress, uint256 playerScore) public {\n        //create new struct with player's info\n        player memory newPlayer = player(playerAddress, playerScore);\n        //if top ten list isn't full yet, add player to top 10\n        if (topTen.length < 10){\n            topTen.push(playerScore);\n            //sort scores\n            sort_array(topTen);\n            leaderboard.push(newPlayer);\n        }\n        if (topTen.length == 10) {\n            topTen.push(playerScore);\n            leaderboard.push(newPlayer);\n            sort_array(topTen);\n            delete topTen[topTen.length-1];\n            delete leaderboard[leaderboard.length-1];\n        }\n    }\n\n    function payDividendsToTopTen() public {\n        uint256 currentBalance = address(this).balance;\n        payout = currentBalance/100;\n        for(uint i=0;i<10;i++){\n            address recieverAddress = leaderboard[i].addr;\n            recieverAddress.transfer(payout);\n        }\n\n\n    }\n\n\n//quicksort function\n    function sort_array(uint256[] arr_) public returns (uint256 [] ){\n        uint256 l = arr_.length;\n        uint256[] memory arr = new uint256[] (l);\n\n        for(uint i=0;i<l;i++)\n        {\n            arr[i] = arr_[i];\n        }\n\n        for(i =0;i<l;i++)\n        {\n            for(uint j =i+1;j<l;j++)\n            {\n                if(arr[i]<arr[j])\n                {\n                    uint256 temp= arr[j];\n                    arr[j]=arr[i];\n                    arr[i] = temp;\n\n                }\n\n            }\n        }\n\n    return arr;\n}\n\n  // =====================================================================\n  // FALLBACK\n  // =====================================================================\n\n  function() public payable {}\n\n}\n",
  "sourcePath": "/Users/masonhall/Documents/Github2/JoeBird/smart-contracts/contracts/Flappy.sol",
  "compiler": {
    "name": "solc",
    "version": "0.4.24+commit.e67f0147.Emscripten.clang"
  },
  "schemaVersion": "2.0.1",
  "updatedAt": "2018-08-09T15:17:34.260Z"
}