{
  "contractName": "Flappy",
  "abi": [
    {
      "constant": true,
      "inputs": [
        {
          "name": "",
          "type": "uint256"
        }
      ],
      "name": "topTen",
      "outputs": [
        {
          "name": "",
          "type": "uint256"
        }
      ],
      "payable": false,
      "stateMutability": "view",
      "type": "function"
    },
    {
      "constant": true,
      "inputs": [],
      "name": "price",
      "outputs": [
        {
          "name": "",
          "type": "uint256"
        }
      ],
      "payable": false,
      "stateMutability": "view",
      "type": "function"
    },
    {
      "inputs": [
        {
          "name": "_name",
          "type": "bytes32"
        }
      ],
      "payable": true,
      "stateMutability": "payable",
      "type": "constructor"
    },
    {
      "payable": true,
      "stateMutability": "payable",
      "type": "fallback"
    },
    {
      "constant": false,
      "inputs": [],
      "name": "AcceptEth",
      "outputs": [],
      "payable": false,
      "stateMutability": "nonpayable",
      "type": "function"
    },
    {
      "constant": false,
      "inputs": [
        {
          "name": "playerAddress",
          "type": "address"
        },
        {
          "name": "playerScore",
          "type": "uint256"
        },
        {
          "name": "name",
          "type": "string"
        },
        {
          "name": "deposit",
          "type": "uint256"
        }
      ],
      "name": "addNewScore",
      "outputs": [],
      "payable": true,
      "stateMutability": "payable",
      "type": "function"
    },
    {
      "constant": false,
      "inputs": [],
      "name": "getLeaderboard",
      "outputs": [
        {
          "name": "",
          "type": "address[]"
        },
        {
          "name": "",
          "type": "uint256[]"
        },
        {
          "name": "",
          "type": "string[]"
        }
      ],
      "payable": false,
      "stateMutability": "nonpayable",
      "type": "function"
    },
    {
      "constant": false,
      "inputs": [],
      "name": "payDividendsToTopTen",
      "outputs": [],
      "payable": false,
      "stateMutability": "nonpayable",
      "type": "function"
    },
    {
      "constant": false,
      "inputs": [
        {
          "name": "playerAddress",
          "type": "address"
        },
        {
          "name": "playerScore",
          "type": "uint256"
        }
      ],
      "name": "checkHighScore",
      "outputs": [
        {
          "name": "",
          "type": "uint256[]"
        }
      ],
      "payable": false,
      "stateMutability": "nonpayable",
      "type": "function"
    }
  ],
  "bytecode": "0x60806040526000805560016007556040516020806110c5833981018060405261002b9190810190610091565b33600b60006101000a81548173ffffffffffffffffffffffffffffffffffffffff021916908373ffffffffffffffffffffffffffffffffffffffff16021790555080600c8160001916905550506100c4565b600061008982516100ba565b905092915050565b6000602082840312156100a357600080fd5b60006100b18482850161007d565b91505092915050565b6000819050919050565b610ff2806100d36000396000f300608060405260043610610083576000357c0100000000000000000000000000000000000000000000000000000000900463ffffffff1680632181c972146100855780636d763a6e146100c25780637d5523f8146100ef5780637d8f4e0d146101065780638863544114610122578063a035b1fe1461015f578063b6fac2c21461018a575b005b34801561009157600080fd5b506100ac60048036036100a79190810190610b5d565b6101a1565b6040516100b99190610e01565b60405180910390f35b3480156100ce57600080fd5b506100d76102ee565b6040516100e693929190610db5565b60405180910390f35b3480156100fb57600080fd5b5061010461063e565b005b610120600480360361011b9190810190610b99565b610731565b005b34801561012e57600080fd5b5061014960048036036101449190810190610c14565b610900565b6040516101569190610e23565b60405180910390f35b34801561016b57600080fd5b50610174610923565b6040516101819190610e23565b60405180910390f35b34801561019657600080fd5b5061019f610929565b005b6060600080548311156102e6578260008190555083600160006101000a81548173ffffffffffffffffffffffffffffffffffffffff021916908373ffffffffffffffffffffffffffffffffffffffff1602179055503073ffffffffffffffffffffffffffffffffffffffff1631905060028181151561021c57fe5b04600281905550600160009054906101000a900473ffffffffffffffffffffffffffffffffffffffff1673ffffffffffffffffffffffffffffffffffffffff166108fc6002549081150290604051600060405180830381858888f1935050505015801561028d573d6000803e3d6000fd5b5060038054806020026020016040519081016040528092919081815260200182805480156102da57602002820191906000526020600020905b8154815260200190600101908083116102c6575b505050505091506102e7565b5b5092915050565b606080606060008090505b600d8054905081101561046f576005600d8281548110151561031757fe5b906000526020600020906003020160010160009054906101000a900473ffffffffffffffffffffffffffffffffffffffff1690806001815401808255809150509060018203906000526020600020016000909192909190916101000a81548173ffffffffffffffffffffffffffffffffffffffff021916908373ffffffffffffffffffffffffffffffffffffffff160217905550506004600d828154811015156103bd57fe5b90600052602060002090600302016002015490806001815401808255809150509060018203906000526020600020016000909192909190915055506006600d8281548110151561040957fe5b9060005260206000209060030201600001908060018154018082558091505090600182039060005260206000200160009091929091909150908054600181600116156101000203166002900461046092919061097b565b505080806001019150506102f9565b600560046006828054806020026020016040519081016040528092919081815260200182805480156104f657602002820191906000526020600020905b8160009054906101000a900473ffffffffffffffffffffffffffffffffffffffff1673ffffffffffffffffffffffffffffffffffffffff16815260200190600101908083116104ac575b505050505092508180548060200260200160405190810160405280929190818152602001828054801561054857602002820191906000526020600020905b815481526020019060010190808311610534575b5050505050915080805480602002602001604051908101604052809291908181526020016000905b8282101561062c578382906000526020600020018054600181600116156101000203166002900480601f0160208091040260200160405190810160405280929190818152602001828054600181600116156101000203166002900480156106185780601f106105ed57610100808354040283529160200191610618565b820191906000526020600020905b8154815290600101906020018083116105fb57829003601f168201915b505050505081526020019060010190610570565b50505050905093509350935050909192565b60008060003073ffffffffffffffffffffffffffffffffffffffff16319250606460085481151561066b57fe5b046002819055506000600d80549050111561072c57600091505b600d8054905082101561072b57600d828154811015156106a157fe5b906000526020600020906003020160010160009054906101000a900473ffffffffffffffffffffffffffffffffffffffff1690508073ffffffffffffffffffffffffffffffffffffffff166108fc6002549081150290604051600060405180830381858888f1935050505015801561071d573d6000803e3d6000fd5b508180600101925050610685565b5b505050565b610739610a02565b6008543414151561074957600080fd5b34600960003373ffffffffffffffffffffffffffffffffffffffff1673ffffffffffffffffffffffffffffffffffffffff16815260200190815260200160002060008282540192505081905550600a3390806001815401808255809150509060018203906000526020600020016000909192909190916101000a81548173ffffffffffffffffffffffffffffffffffffffff021916908373ffffffffffffffffffffffffffffffffffffffff1602179055505061080461063e565b84816020019073ffffffffffffffffffffffffffffffffffffffff16908173ffffffffffffffffffffffffffffffffffffffff168152505083816040018181525050828160000181905250600d81908060018154018082558091505090600182039060005260206000209060030201600090919290919091506000820151816000019080519060200190610899929190610a3a565b5060208201518160010160006101000a81548173ffffffffffffffffffffffffffffffffffffffff021916908373ffffffffffffffffffffffffffffffffffffffff160217905550604082015181600201555050506108f885856101a1565b505050505050565b60038181548110151561090f57fe5b906000526020600020016000915090505481565b60085481565b33600b60006101000a81548173ffffffffffffffffffffffffffffffffffffffff021916908373ffffffffffffffffffffffffffffffffffffffff160217905550670de0b6b3a7640000600881905550565b828054600181600116156101000203166002900490600052602060002090601f016020900481019282601f106109b457805485556109f1565b828001600101855582156109f157600052602060002091601f016020900482015b828111156109f05782548255916001019190600101906109d5565b5b5090506109fe9190610aba565b5090565b60606040519081016040528060608152602001600073ffffffffffffffffffffffffffffffffffffffff168152602001600081525090565b828054600181600116156101000203166002900490600052602060002090601f016020900481019282601f10610a7b57805160ff1916838001178555610aa9565b82800160010185558215610aa9579182015b82811115610aa8578251825591602001919060010190610a8d565b5b509050610ab69190610aba565b5090565b610adc91905b80821115610ad8576000816000905550600101610ac0565b5090565b90565b6000610aeb8235610f3b565b905092915050565b600082601f8301121515610b0657600080fd5b8135610b19610b1482610e6b565b610e3e565b91508082526020830160208301858383011115610b3557600080fd5b610b40838284610f65565b50505092915050565b6000610b558235610f5b565b905092915050565b60008060408385031215610b7057600080fd5b6000610b7e85828601610adf565b9250506020610b8f85828601610b49565b9150509250929050565b60008060008060808587031215610baf57600080fd5b6000610bbd87828801610adf565b9450506020610bce87828801610b49565b935050604085013567ffffffffffffffff811115610beb57600080fd5b610bf787828801610af3565b9250506060610c0887828801610b49565b91505092959194509250565b600060208284031215610c2657600080fd5b6000610c3484828501610b49565b91505092915050565b610c4681610f11565b82525050565b6000610c5782610ebe565b808452602084019350610c6983610e97565b60005b82811015610c9b57610c7f868351610c3d565b610c8882610eea565b9150602086019550600181019050610c6c565b50849250505092915050565b6000610cb282610ec9565b80845260208401935083602082028501610ccb85610ea4565b60005b84811015610d04578383038852610ce6838351610d70565b9250610cf182610ef7565b9150602088019750600181019050610cce565b508196508694505050505092915050565b6000610d2082610ed4565b808452602084019350610d3283610eb1565b60005b82811015610d6457610d48868351610da6565b610d5182610f04565b9150602086019550600181019050610d35565b50849250505092915050565b6000610d7b82610edf565b808452610d8f816020860160208601610f74565b610d9881610fa7565b602085010191505092915050565b610daf81610f31565b82525050565b60006060820190508181036000830152610dcf8186610c4c565b90508181036020830152610de38185610d15565b90508181036040830152610df78184610ca7565b9050949350505050565b60006020820190508181036000830152610e1b8184610d15565b905092915050565b6000602082019050610e386000830184610da6565b92915050565b6000604051905081810181811067ffffffffffffffff82111715610e6157600080fd5b8060405250919050565b600067ffffffffffffffff821115610e8257600080fd5b601f19601f8301169050602081019050919050565b6000602082019050919050565b6000602082019050919050565b6000602082019050919050565b600081519050919050565b600081519050919050565b600081519050919050565b600081519050919050565b6000602082019050919050565b6000602082019050919050565b6000602082019050919050565b600073ffffffffffffffffffffffffffffffffffffffff82169050919050565b6000819050919050565b600073ffffffffffffffffffffffffffffffffffffffff82169050919050565b6000819050919050565b82818337600083830152505050565b60005b83811015610f92578082015181840152602081019050610f77565b83811115610fa1576000848401525b50505050565b6000601f19601f83011690509190505600a265627a7a723058207414ab73a2a0af260d038ab3762e7f7ea317068d078aaa7bc731c682966cf58d6c6578706572696d656e74616cf50037",
  "source": "pragma solidity ^0.4.2;\npragma experimental ABIEncoderV2;\n\ncontract Flappy {\n\n  // =====================================================================\n  // VARIABLES\n  // =====================================================================\n    uint256 private highScore = 0;\n    address private highScoreAddress;\n    uint256 private payout;\n    uint256[] public topTen;\n    uint[] leaderboardScores;\n    address[] leaderboardAddresses;\n    string[] leaderboardNames;\n    uint playPrice = 1;\n    uint public price;\n    mapping (address => uint) balance;\n    address[] alreadyPayed;\n\n    address owner;\n    bytes32 name;\n\n    // =====================================================================\n    // CONSTRUCTOR\n    // =====================================================================\n\n    /**\n    @param _name Bytes32 address of owner\n    */\n    constructor (bytes32 _name) payable public {\n        owner = msg.sender;\n        name = _name;\n    }\n\n    struct player{\n        string name;\n        address addr;\n        uint256 score;\n    }\n\n    player[] leaderboard;\n\n\n    // =====================================================================\n    // FLAPPY\n    // =====================================================================\n\n    /**\n    @notice when someone plays, they send eth to the smart contract that is added to the pot\n    when they are finished playing, their score and address get sent to this contract\n    their score and address is added to the ranking list, and removed if not in top 10\n    if the person just acheived the highscore, they instantly get half the pot\n    when this happens, 10% of the pot is split between the top 10 on the ranking board\n    */\n\n\n    function AcceptEth() {\n        // set owner as the address of the one who created the contract\n        owner = msg.sender;\n        // set the price to 1 ether\n        price = 1 ether;\n    }\n\n\n    \n\n    function addNewScore(address playerAddress, uint256 playerScore, string name, uint256 deposit) public payable {\n        require(msg.value == price);\n\n        // Track that calling account deposited ether\n        balance[msg.sender] += msg.value;\n        alreadyPayed.push(msg.sender);\n        payDividendsToTopTen();\n        \n        player memory newPlayer;\n        newPlayer.addr = playerAddress;\n        newPlayer.score = playerScore;\n        newPlayer.name = name;\n        leaderboard.push(newPlayer);\n        \n        checkHighScore(playerAddress, playerScore);\n        \n\n    }\n\n    \n    \n    function getLeaderboard() external returns (address[], uint256[], string[]) {\n       // leaderboard = sort_leaderboard(leaderboard);\n        for(uint i=0;i<leaderboard.length;i++){\n            leaderboardAddresses.push(leaderboard[i].addr);\n            leaderboardScores.push(leaderboard[i].score);\n            leaderboardNames.push(leaderboard[i].name);\n        } \n\n        return (leaderboardAddresses, leaderboardScores, leaderboardNames);\n    }\n    \n    function payDividendsToTopTen() public {\n        uint256 currentBalance = this.balance;\n        payout = price/100;\n        if(leaderboard.length > 0){\n            for(uint i=0;i<leaderboard.length;i++){\n                address recieverAddress = leaderboard[i].addr;\n                recieverAddress.transfer(payout);\n            }\n        }\n\n    }\n    function checkHighScore(address playerAddress, uint256 playerScore) public returns (uint[]){\n        if (playerScore > highScore) {\n           //set old high score to new high score\n            highScore = playerScore;\n            //set address to pay winner\n            highScoreAddress = playerAddress;\n            //get current pot balance\n            uint256 currentBalance = address(this).balance;\n            payout = currentBalance/2;\n            //send eth\n            highScoreAddress.transfer(payout);\n            return topTen;\n        }\n        \n    }\n\n\n  // =====================================================================\n  // FALLBACK\n  // =====================================================================\n\n  function() public payable {}\n\n}\n\n",
  "sourcePath": "/Users/kiba/code/floppybird/smart-contracts/contracts/flappy.sol",
  "compiler": {
    "name": "solc",
    "version": "0.4.24+commit.e67f0147.Emscripten.clang"
  },
  "schemaVersion": "2.0.1",
  "updatedAt": "2018-08-09T19:01:24.142Z"
}